:020000040800F2
:10000000001400208901000827260008BF1C0008F2
:10001000291F0008C5030008B52C000800000000D7
:100020000000000000000000000000002B26000877
:100030002304000800000000292600082D260008DF
:10004000A3010008A3010008A3010008A301000800
:10005000A3010008A3010008A3010008A3010008F0
:10006000A3010008A3010008A3010008A3010008E0
:10007000A3010008A3010008C9030008D503000874
:10008000E1030008ED030008A3010008A301000834
:10009000A3010008A3010008A3010008A3010008B0
:1000A000A3010008A3010008A3010008A3010008A0
:1000B000A3010008A3010008A3010008A301000890
:1000C000A3010008A3010008A3010008A301000880
:1000D000A3010008652C00088D2C0008A30100086E
:1000E000A3010008A3010008A301000800F002F822
:1000F00000F03AF80AA090E8000C82448344AAF188
:100100000107DA4501D100F02FF8AFF2090EBAE885
:100110000F0013F0010F18BFFB1A43F0010318473B
:100120006045000080450000103A24BF78C878C1BF
:10013000FAD8520724BF30C830C144BF04680C60ED
:10014000704700000023002400250026103A28BF35
:1001500078C1FBD8520728BF30C148BF0B60704739
:100160001FB51FBD10B510BD00F08AF81146FFF78E
:10017000F7FF03F05BF800F0A8F803B4FFF7F2FF15
:1001800003BC00F0ADF8000009488047094800476B
:10019000FEE7FEE7FEE7FEE7FEE7FEE7FEE7FEE737
:1001A000FEE7FEE704480549054A064B7047000094
:1001B000C9260008ED000008000E002000140020F1
:1001C000001000200010002010B5203AC0F00B8075
:1001D000B1E81850203AA0E81850B1E81850A0E84B
:1001E0001850BFF4F5AF5FEA027C24BFB1E81850A5
:1001F000A0E8185044BF18C918C0BDE810405FEA15
:10020000827C24BF51F8043B40F8043B08BF704790
:10021000D20728BF31F8023B48BF11F8012B28BF95
:1002200020F8023B48BF00F8012B70474FF0000256
:1002300000B5134694469646203922BFA0E80C50DC
:10024000A0E80C50B1F12001BFF4F7AF090728BFB7
:10025000A0E80C5048BF0CC05DF804EB890028BF33
:1002600040F8042B08BF704748BF20F8022B11F05C
:10027000804F18BF00F8012B7047704770477047D8
:10028000754600F029F8AE4605006946534620F051
:100290000700854618B020B5FFF784FFBDE8204071
:1002A0004FF000064FF000074FF000084FF0000B32
:1002B00021F00701AC46ACE8C009ACE8C009ACE8E5
:1002C000C009ACE8C0098D4670470446AFF3008012
:1002D0002046FFF752FF000000487047A00D0020A5
:1002E00001491820ABBEFEE726000200704700005F
:1002F00070B5044600688168C943C90717D1816891
:1003000021F00101816000F0B9FD05460AE000BF5F
:1003100000F0B4FD401B022804D920688068C04367
:10032000C00706D020688068C043C007F0D0002016
:1003300070BDA06A40F01000A062E06A40F00100C9
:10034000E062012070BD0000F8B50026044600966A
:1003500000688168C943C9072DD0816841F0010157
:100360008160164816490068B0FBF1F000E0401EBD
:1003700000900028FBD100F081FD054616E000BF8B
:1003800000F07CFD401B022810D920688068C04323
:10039000C0070BD0A06A40F01000A062E06A40F0F5
:1003A0000100E06284F824600120F8BD20688068C4
:1003B000C043C007E4D10020F8BD00007C0000204D
:1003C00040420F00FEE70000014800F033BB000090
:1003D00040050020014800F02DBB0000FC04002077
:1003E000014800F027BB0000CC050020014800F0C8
:1003F00021BB00001006002030B590F840500124C9
:10040000AC40C56B6C60046863604368102B036884
:1004100003D099600068C26030BD9A600068C16016
:1004200030BD704772B6FEE7F8B50025044600956A
:1004300090F8240001280BD0012084F824002046E5
:10044000FFF756FF2046FFF77FFF060002D050E07F
:100450000220F8BDA06A20F4885040F00200A0629B
:10046000022000F0A9FD25490968B1FBF0F0400029
:1004700000E0401E00900028FBD12068816841F018
:100480000801816000F0FAFC074608E000F0F6FC85
:10049000C01B0A2803D920688068000715D420688B
:1004A00080680007F2D42068816841F0040181600F
:1004B00000F0E4FC074612E000F0E0FCC01B0A2854
:1004C0000DD920688068400709D5A06A20F0020095
:1004D00040F01000A06284F824500120F8BD20688C
:1004E00080684007E8D4A06A20F0020040F00100D4
:1004F000A06284F824503046F8BD00007C00002043
:10050000F8B50024009490F824202546012A12D042
:10051000012280F824204A681F23072A0DD206688A
:10052000776B521E02EB820293409F430B6893400D
:100530001F43776319E00220F8BD06680D2A0AD22E
:10054000376BD21F02EB820293409F430B689340AC
:100550001F43376309E0F76A0D3A02EB82029340CA
:100560009F430B6893401F43F7620A68072306689E
:100570000A2A0AD3F7680A3A02EB420293409F43E1
:100580008B6893401F43F76008E0376902EB420233
:1005900093409F438B6893401F4337610A68102A3A
:1005A00001D0112A20D1124B02689A4217D19368C8
:1005B0001B0219D4936843F400039360096810295F
:1005C00012D10C490C4A0968B1FBF2F101EB81012F
:1005D000490000E0491E00910029FBD104E0816A36
:1005E00041F020018162012480F824502046F8BDAA
:1005F000002401407C00002040420F000068C06CD5
:10060000704700002DE9F0414FF0000704003D461F
:100610007ED0A06A002628B9E66284F824602046CD
:1006200000F07EF82046FFF763FEA16A01F010019A
:10063000014304D0A06A40F01000A06268E0A16A03
:1006400021F4885141F00201A1626268E169237BD3
:100650000A4347EA43010A43A1684FF48077B9424D
:1006600008D0012906D0002194F814C0BCF1010F74
:1006700002D00AE03946F7E7F3B1A36A43F020035A
:10068000A362E36A43F00103E3622368D3F804C082
:100690002CF4694C4CEA010CC3F804C02368996837
:1006A000DFF870C001EA0C0111439960A168B942FA
:1006B0000BD0012909D00CE0DFF85CC0A3690CEB7A
:1006C00043330B4343F40061DFE7218A0D05A5F5B1
:1006D00080152168CB6A23F470032B43CB62216819
:1006E00089680E4B1940914208D1E662A16A21F057
:1006F000020141F00101A162BDE8F081A06A20F091
:10070000020040F01000A062E06A40F00100E062E8
:100710000120F1E7FDF7E1FF00E0FFFFFE0E1FFF04
:10072000704700002DE9F84300270D460446009766
:1007300000F0A4FB804620688168C90508D5A06A3E
:1007400040F02000A06284F824700120BDE8F88306
:100750004168C90503D4C06A10F4700F2AD0022082
:1007600000F02AFC3B490968B1FBF0F620680369F8
:1007700039490B424FEA61014FEAA1121FD1C36808
:100780004FEA611C13EA0C0F19D103690B4225D102
:10079000C068104222D1142023E0681C0AD02DB179
:1007A00000F06CFBA0EB0800A84203D920680068A9
:1007B000800725D5206800688007EED52DE0036905
:1007C0000B4202D1C168114206D0026923490A4294
:1007D00006D1C068084203D1542002E0292000E07D
:1007E000FC204643009816E0681C11D02DB100F0A3
:1007F00045FBA0EB0800A8420AD90098B04207D2F6
:10080000A06A40F00400A06284F8247003209DE7F1
:100810000098401C0090B042E6D321686FF01200AF
:100820000860A06A40F40070A06220688068C0F38D
:10083000424007280CD1207B50B9A06A20F4807078
:10084000A062A06AC00403D4A06A40F00100A062C4
:1008500000207BE77C000020244992244992240058
:1008600070B5044690F8240001280DD0012084F8CA
:1008700024002046FFF768FD02004FF0000005D07D
:1008800084F82400104670BD022070BDA16A40F2B9
:100890000123994341F48071A1621F4D23681F49D0
:1008A000AB4218D10E6816F4702F14D0A66A46F425
:1008B0008016A6620E68760505D5A66A26F400564F
:1008C00046F48056A662A66AF6040AD5E66A26F0C1
:1008D0000606E66206E0A66A26F48016A6625E6850
:1008E000E9E7E06284F824006FF0020018602068F5
:1008F0008368C3F34243072B05D1A84208D1096896
:1009000011F4702F04D0816841F480118160B9E73F
:10091000816841F4A001F9E7002801400424014066
:1009200010B5044690F82400012807D0012084F86F
:1009300024002046FFF7DCFC10B107E0022010BDC8
:10094000A16A21F4885141F00101A162002184F8DB
:10095000241010BD10B590F821100022022905D0F6
:100960000421816380F82020012010BD01680B68FC
:1009700023F00E030B6001680B6823F001030B608A
:1009800090F84030C46B012101FA03F3636080F8F2
:10099000211080F82020104610BD000010B590F8FE
:1009A00021100024022903D00421816301243DE0A9
:1009B00001680A6822F00E020A6001680A6822F0E3
:1009C00001020A601A4A0168914201D1012121E025
:1009D000174A1432914201D110211BE0144A2832E7
:1009E000914201D1891515E0114A3C32914201D161
:1009F00089140FE00E4A5032914202D14FF48031F7
:100A000008E00B4A6432914202D14FF4801101E0B8
:100A10004FF08071064A083A5160012180F8211098
:100A2000002180F82010416B01B18847204610BD9D
:100A3000080002402DE9F05FC16B0C6801680B688B
:100A4000D0F840C0042202FA0CF2494DDFF824A18C
:100A5000494E4A4FDFF828B1DFF828E122422CD076
:100A60005A072AD50A68920603D40A6822F00402BB
:100A70000A600168A94201D1042219E0514501D15F
:100A8000402215E0B14202D14FF4806210E0B94239
:100A900002D14FF480420BE0594502D14FF480223D
:100AA00006E0714502D14FF4800201E04FF0806210
:100AB0002F4908394A60C16A3BE04FF0020808FA42
:100AC0000CF818EA040F4FF000094FF0010235D07E
:100AD0005FEA837832D50B689B0605D40B6823F058
:100AE0000A030B6080F821200168A94201D102228B
:100AF00019E0514501D1202215E0B14202D14FF455
:100B0000007210E0B94202D14FF400520BE0594597
:100B100002D14FF4003206E0714502D14FF40012C9
:100B200001E04FF00072124908394A6080F82090C5
:100B3000816A00291AD0BDE8F05F0847082505FA48
:100B40000CF5254212D01B0710D50B6823F00E03BD
:100B50000B6090F84010C36B02FA01F15960826398
:100B600080F8212080F82090016BE2E7BDE8F09F3B
:100B7000080002401C0002403000024044000240D5
:100B8000580002406C00024030B528B308C8134931
:100B900014221944B1FBF2F18900C1631049816349
:100BA000022141771A6843F6F0718A43D0E90014B4
:100BB0002143D0E902452C43214304692143446980
:100BC00021438469214311431960002141630122BB
:100BD00042770177084630BD012030BDF8FFFDBFE8
:100BE0000000024070B5044690F82000002501285E
:100BF0000CD0012084F8200094F821600020012E00
:100C000006D084F820000225284670BD022070BD61
:100C1000022684F82160A0632068066826F0010699
:100C200006602046FFF7E8FBE06A002820680168BC
:100C300002D041F00E0106E021F0040101602068BD
:100C4000016841F00A0101602068016841F001017A
:100C50000160D9E770B5044600F010F90546601C44
:100C600002D004480078044400F008F9401BA04278
:100C7000FAD370BD700000202DE9F84FDFF8B8916D
:100C80000024A9F1040B23460F2709F1040AABF154
:100C9000040EC9E00125A5402A40AA427DD1674E35
:100CA000D1F804C0ACEB0608B44532D014DCBCF17A
:100CB000030F3AD009DCBCF1000F2AD0BCF1010FC0
:100CC0001CD0BCF1020F31D11DE0BCF1110F17D0C7
:100CD000BCF1120F2AD119E0B8F5881F19D006DC33
:100CE000B8F5803F15D0B8F5801F1FD111E0B8F5D9
:100CF000001F0ED0B8F5041F18D10AE0CB6815E02C
:100D0000CB681B1D12E0CB6808330FE0CB680C33B7
:100D10000CE08B682BB1012B4FF0080303D0456129
:100D200004E0042302E0056100E00023FF2A01D86B
:100D3000064601E000F104064FEA840501D9A5F159
:100D40002005D6F8008007FA05FC28EA0C0803FA0B
:100D500005F548EA0508C6F800804D68ED0062D543
:100D6000374DAE6946F00106AE61AD6924F0030669
:100D700005F001050095334D06EB050CDCF8085035
:100D8000A607360F07FA06F825EA0805DFF8B88047
:100D9000404503D14FF0000817E044E0DFF8AC8095
:100DA000404502D14FF001080FE0DFF8A480404534
:100DB00002D14FF0020808E0DFF89880404502D1E8
:100DC0004FF0030801E04FF0040808FA06F848EA7B
:100DD0000508CCF808804D68D9F80060ED024D4652
:100DE00001D5164300E096432E604D68DAF80060A6
:100DF000AD02554601D5164300E096432E604D687E
:100E0000DBF80060AD035D4601D5164300E0964374
:100E10002E604D68DEF80060ED03754601D516437F
:100E200000E096432E60641C0D682A46E5407FF47E
:100E300031AFBDE8F88F0000080401400000111038
:100E4000001002400000014000080140000C014079
:100E500000100140001401408068084000D00120CB
:100E60007047C26821EA02030A4043EA0241016175
:100E700070470AB1016170470904FBE701488068C7
:100E80007047000070000020024881680278114419
:100E90008160704770000020074810B5016841F07C
:100EA00010010160032000F075F80F2000F006F833
:100EB00000F024F8002010BD0020024070B50D4D58
:100EC00004464FF47A712878B1FBF0F00A490968BA
:100ED000B1FBF0F000F02EFB48B9102C07D2002235
:100EE0002146501E00F036F800206C6070BD0120D5
:100EF00070BD0000700000207C0000200C4808B588
:100F0000816941F001018161816901F00101009174
:100F1000C16941F08051C161C06900F0805000900A
:100F20000448416821F0E06141F00071416008BD72
:100F30000010024000000140002809DB00F01F0201
:100F4000012191404009800000F1E020C0F800112B
:100F500070470000F0B40E4B1B680C46C3F302232D
:100F6000C3F10705042D00D90425191D072901D255
:100F7000002300E0DB1E012606FA05F1491E214090
:100F800099409E40761E16403143F0BC01F093BE5E
:100F90000CED00E0064900F0070208684FF6FF0379
:100FA000184040EA0220034A1043086070470000DE
:100FB0000CED00E00000FA0510B501460020234CBE
:100FC000012922D0022939D010291DD16168226857
:100FD000D20119D51E48C1F38342C903805C0AD5EA
:100FE00061681B4AC1F34041921E515C194AB2FB31
:100FF000F1F1484301E0184948436168490203D4CC
:1010000040000321B0FBF1F010BD226AC2F30121C0
:10101000012903D1920701D5C80310BD022905D1CA
:10102000626A920702D549F6404010BD0329FCD1FF
:1010300021688903F9D54FF2244010BD00F0B4F8BF
:101040006168C1F38131491C4900DBE700100240AF
:101050002E44000800127A0000093D002DE9F047F7
:101060000F46050061D0434E306800F00700B842DB
:1010700009D2306820F0070038433060306800F053
:101080000700B84251D128683B4C810712D5400770
:1010900003D5606840F4E06060602878000703D5FD
:1010A000606840F4605060606068A96820F0F000FB
:1010B000084360602878C00728D06868012810D0ED
:1010C0002168022810D0890700292EDA616821F0F2
:1010D000030101436160FFF7D1FE804641F2883988
:1010E0000DE021688903EFE78901EDE7FFF7C6FE10
:1010F000A0EB0801494502D90320BDE8F0876068EC
:10110000696800F00C00B0EB810FEFD1306800F09F
:101110000700B8420BD9306820F007003843306030
:10112000306800F00700B84201D00120E5E72878D8
:10113000400705D56068E96820F4E0600843606016
:101140002878000706D56068296920F4605040EAD5
:10115000C100606000F038F86168084AC1F303110B
:10116000515CC8400649086006480068FFF7A6FEC3
:101170000020C2E700200240001002403E44000868
:101180007C0000207400002004480549006849687C
:10119000044AC1F30221515CC84070477C00002022
:1011A000001002404E4400080448054900684968A0
:1011B000044AC1F3C221515CC84070477C00002042
:1011C000001002404E4400080E4A51680E4801F0DB
:1011D0000C03042B11D0082B0FD10C48C1F383430F
:1011E000C903C05C0AD55168084AC1F34041921E48
:1011F000515C054A5043B0FBF1F070470449484345
:10120000704700000010024000127A001C440008E1
:1012100000093D002DE9F84F040070D02078C04D42
:10122000C00749D06868C0F38100012807D068680A
:10123000C0F38100022809D16868C00306D5286878
:10124000800339D560680028E7D035E06068B0F5E4
:10125000803F0BD010B1B0F5A02F11D0286820F43A
:1012600080302860286820F4802002E0286840F45C
:1012700080302860606890B1FFF700FE06460AE003
:10128000286840F480202860F0E700BFFFF7F6FDF3
:10129000801B642873D828688003F7D50CE0FFF71B
:1012A000EDFD064605E000BFFFF7E8FD801B642862
:1012B000F0D828688003F7D420789A4E80074FF042
:1012C00001094FF0000839D5686810F00C0F07D0FD
:1012D0006868C0F38100022809D16868C00306D499
:1012E0002868800714D52069012808D110E02069FA
:1012F000B0B1C6F80090FFF7C1FD074605E00AE16E
:10130000FFF7BCFDC01B0228C4D828688007F7D5AA
:101310002868616920F0F80040EAC10028600DE00B
:10132000C6F80080FFF7AAFD074604E0FFF7A6FD18
:10133000C01B022823D828688007F7D4207800072C
:101340002CD57948A169D9B1C0F80090FFF796FD76
:10135000074604E0FFF792FDC01B02280FD8686A19
:101360008007F7D571484FF4FA510068B0FBF1F0EF
:10137000009000BF0098411E0091FAD20EE080E07C
:10138000C0F80080FFF77AFD074604E0FFF776FD1E
:10139000C01B022875D8686A8007F7D420784007F8
:1013A00060D5E8690027C00008D4E86940F08050A3
:1013B000E861E869012700F0805000905C4801680E
:1013C000C90513D40168834641F480710160FFF7B9
:1013D00055FD824606E000BFFFF750FDA0EB0A0076
:1013E00064284ED8DBF80000C005F5D5E068012878
:1013F0000AD008B1052813D0286A20F0010028621D
:10140000286A20F0040002E0286A40F00100286207
:10141000E06841F2883B98B1FFF730FD82460BE06F
:10142000286A40F004002862EEE700BFFFF726FDBF
:10143000A0EB0A0159455AD8286A8007F6D50CE076
:10144000FFF71CFD824605E0FFF718FDA0EB0A013F
:1014500059454CD8286A8007F6D41FB1E86920F0B6
:101460008050E861E06988B36968C1F381010229AD
:1014700044D00228C6F8608004D0FFF7FFFC044681
:1014800038E034E0FFF7FAFC074604E0FFF7F6FC2B
:10149000C01B02282BD828688001F7D4206AB0F539
:1014A000803F05D16868A16820F400300843686077
:1014B000D4E908010843696821F47411084368609D
:1014C000C6F86090FFF7DAFC044606E025E000BFAE
:1014D000FFF7D4FC001B022809D828688001F7D543
:1014E0001BE000BFFFF7CAFC001B022802D9032043
:1014F000BDE8F88F28688001F4D40EE00128F7D009
:101500006868226A00F48031914204D1616A00F473
:101510007010884201D00120EAE70020E8E70000CF
:101520000010024000004242800442427C00002041
:101530000070004010B5401EB0F1807F01D3012043
:1015400010BD4FF0E02460610F21601701F0B3FB84
:101550000020A06107202061002010BD10B590F888
:101560003C20012A22D0012280F83C20CA688C68E5
:1015700022F4407222434C6822F4806222430C68B9
:1015800022F4006222430C6922F4805222434C6907
:1015900022F400522243C969002322F480420A4304
:1015A00001684A6480F83C30002010BD022010BD64
:1015B00010B50446022249B104290ED0082913D0DF
:1015C00094F84500012816D0012010BD94F842007F
:1015D0000128F9D184F842200FE094F84300012853
:1015E000F2D184F8432008E094F844000128EBD1BC
:1015F00084F8442001E084F845200422206801F0AA
:10160000A1F82068416C41F4004141640B49206815
:10161000884208D0B0F1804F05D00949884202D0F5
:101620000849884204D1816801F00701062903D0E6
:10163000016841F001010160002010BD002C014053
:10164000000400400008004070B504460D460068E4
:10165000002201F077F82068036A41F211110B4271
:1016600040F2444206D1036A134203D1436C23F48F
:10167000004343642068036A0B4206D1016A1142A9
:1016800003D1016821F00101016001203DB1042D69
:1016900008D0082D09D084F84500002070BD84F8DA
:1016A0004200FAE784F84300F7E784F84400F4E7DF
:1016B00070B5044690F83C0000260D4601280FD076
:1016C000012084F83C006AB1042A1DD0082A2FD0DA
:1016D0000C2A3FD00126002084F83C00304670BD23
:1016E000022070BD206801F03BF82068816941F05C
:1016F000080181612068816921F00401816120680D
:1017000081692A69114311E0206801F051F82068CD
:10171000816941F4006181612068816921F48061FF
:101720008161206881692A6941EA02218161D2E7E9
:10173000206801F069F82068C16941F00801C161C1
:101740002068C16921F00401C1612068C1692A696A
:10175000114311E0206801F083F82068C16941F469
:101760000061C1612068C16921F48061C1612068A4
:10177000C1692A6941EA0221C161ACE710B50400E0
:1017800003D094F83D0010B107E0012010BD002007
:1017900084F83C00204600F01EF8022084F83D004A
:1017A000211D206800F092FF012084F8460084F893
:1017B0003E0084F83F0084F8400084F8410084F83B
:1017C000420084F8430084F8440084F8450084F81B
:1017D0003D00002010BD7047704710B504460068FA
:1017E000406994F84110C0F3C010212911D180B193
:1017F0002068143050E8001F21F0800140E80012FA
:10180000002AF5D1A06B08B1FFF7A4F8204601F03B
:1018100015F92068406994F84210C0F3801022291D
:1018200011D180B12068143050E8001F21F0400130
:1018300040E80012002AF5D1E06B08B1FFF78AF802
:10184000204601F0D4F8002010BD08B500680168FA
:1018500000914068009008BDF8B50168044608682A
:10186000CA684B6910F00F0F4FF000055AD003F013
:10187000010602F49077374365D0C10705D0D10542
:1018800003D5616C41F001016164410705D5D907B9
:1018900003D0616C41F002016164810705D5D9076D
:1018A00003D0616C41F004016164010707D502F0C7
:1018B0002001314303D0616C41F008016164616C27
:1018C00000293BD0800604D5900602D5204601F0C1
:1018D000C3F820684069616CC0F3801001F0080112
:1018E000014320462BD001F082F820684069400671
:1018F00021D52068143050E8001F21F0400140E855
:101900000012002AF5D1E06BA8B16D494163E06B8C
:10191000FFF744F8002811D0E06B416B01B0BDE83F
:10192000F040084783060ED593060CD52046BDE847
:10193000F84001F091B82046FFF787FFF8BDFFF7A8
:1019400084FF6564F8BD266B2023012E7CD1C6067A
:101950007AD5D60678D508684868009048694FF06F
:101960000206400640D5E16B086840680004000CA0
:10197000E8D0A28D8242E5D9E085886920282DD063
:1019800020680C3050E8001F21F4807140E80012FC
:10199000002AF5D12168143151E8000F20F0010030
:1019A00041E80002002AF5D12068143050E8001FF9
:1019B00021F0400140E80012002AF5D184F84230BD
:1019C000256320680C3050E8001F21F0100140E82A
:1019D0000012002AF5D1E06BFEF7BCFF6663A08D14
:1019E000E18D401A81B22AE0A08DE18D401A81B2CA
:1019F000E08D0028A6D00029A4D022680C3252E83D
:101A0000000F20F4907042E80007002FF5D1206805
:101A1000143050E8002F22F0010240E80027002F88
:101A2000F5D184F84230256320680C3050E8002F4F
:101A300022F0100240E80023002BF5D16663204617
:101A4000FFF7CAFEF8BDFFE705062BD5150629D519
:101A500094F841002128F5D1A068B0F5805F01D14C
:101A60002069B0B1206A411C216221680078486079
:101A7000E08C401E0004000CE084E3D12068C168C3
:101A800021F08001C1602068C16841F04001C1605F
:101A9000D8E7206A0088C0F308004860206A801CEC
:101AA0002062E5E74006CDD55006CBD5CA68204672
:101AB00022F04002CA6084F8413000F0EFF8C1E73C
:101AC000A528000870B5040004D094F84100002552
:101AD00010B106E0012070BD84F84050204600F0AF
:101AE00023F8242084F841002068C16821F40051C3
:101AF000C160204601F012F82068016921F490418C
:101B000001612068416921F02A0141612068C168B2
:101B100041F40051C1606564202084F8410084F8DC
:101B200042006563002070BDF0B585B00024064614
:101B3000009401940294039400682C49884252D185
:101B40002B48816941F480418161816901F48041C0
:101B50000491816941F0040181618069254D00F0A3
:101B6000040004904FF400700090022001900320C4
:101B7000039069462846FFF77FF82815CDE9000451
:101B8000694628460294FFF777F81C4D1A488027CB
:101B9000C5E90004C5E902472C616C61AC612846C7
:101BA000EC61FEF7F1FF08B1FEF73CFCF5636E62F5
:101BB0001148134D143801C5102091C5104845F83F
:101BC00010496C61AC61EC61FEF7DEFF08B1FEF715
:101BD00029FCB5630022114625206E62FFF7BAF991
:101BE0002520FFF7A9F905B0F0BD0000003801403D
:101BF000001002400008014058000240FC04002090
:101C00004005002090F84230202B01D00220704780
:101C100021B11AB10023036300F0DCBF012070473B
:101C20007047704770B5044690F84100202801D0F5
:101C3000022070BD49B342B32162A284E284002035
:101C40006064212384F84130A56B114BAB62A56B16
:101C5000104BEB62A56B104B2B63A36B586325688D
:101C600013462A1DA06BFEF7BDFF21686FF04000F0
:101C700008602068143050E8001F41F0800140E8FF
:101C80000012002AF5D1002070BD012070BD0000B7
:101C9000A3290008E5290008B5280008054988425D
:101CA00001D100F033BB0449884201D100F0ECBB04
:101CB00070470000B4040020840500207047FEE750
:101CC0002DE9F041204886B0816941F0040181612D
:101CD000816901F004010491816941F00801816189
:101CE0008169002401F00801009401940294CDE977
:101CF0000341816941F0040181618069DFF84C8012
:101D000000F004000490224610214046FFF7B1F88D
:101D1000102001250326CDE90005CDE902466946DC
:101D20004046FEF7A9FF2F02002239464046FFF742
:101D3000A0F800970396CDE9015469464046FEF7A6
:101D40009BFF06B0BDE8F081001002400008014092
:101D5000F0B5354885B0816941F480418161816980
:101D600001F480410491816941F00401816180693D
:101D7000002400F0040004904FF400700090022052
:101D8000CDE901040320294D039069462846FEF75A
:101D900073FF2815CDE90004694628460294FEF732
:101DA0006BFF244D224828604FF4E130C5E901045F
:101DB0000C20EC60C5E90440AC612846EC61FFF7FB
:101DC00081FE00B1FEE71B4E1B4848368027C6E95E
:101DD0000004C6E9024734617461B4613046F461BD
:101DE000FEF7D2FE00B1FEE7EE637562114E1248B7
:101DF0008C36143801C6102091C60E4846F810499A
:101E00008C307461B461F461FEF7BEFE00B1FEE790
:101E1000AE630022114625207562FFF79BF825204E
:101E2000FFF78AF805B0F0BD00100240000801403D
:101E300000380140B404002058000240F0B5354895
:101E400085B0C16941F40031C161C16901F400315B
:101E50000491816941F0040181618069002400F0EE
:101E600004000490042000900220CDE90104032026
:101E7000294D039069462846FEF7FEFE0820CDE96D
:101E80000004694628460294FEF7F6FE244D2348D6
:101E900028604FF4E130C5E901040C20EC60C5E98D
:101EA0000440AC612846EC61FFF70CFE00B1FEE790
:101EB0001B4E1C4848368027C6E90004C6E9024785
:101EC00034617461B4613046F461FEF75DFE00B1C7
:101ED000FEE7EE637562124E12488C36143001C66E
:101EE000102091C60E4846F810498C307461B461D8
:101EF000F461FEF749FE00B1FEE7AE630122002166
:101F000026207562FFF726F82620FFF715F805B0A2
:101F1000F0BD0000001002400008014000440040F5
:101F2000840500206C000240FEE7000010B500F0C0
:101F3000B3FF044601F06AFD217A454800F04DFBED
:101F400064224449424800F03EFB42493222C831F3
:101F50003F4800F03DFB50223F493D4800F01FFB49
:101F600028223E493A4800F01FFB39483C49394A8B
:101F7000C0F848123B49C0F84C12002101F57A70B4
:101F800022F81100491C89B26429F7D3324A002192
:101F9000B2F1640201F5FA6022F81100491C89B21D
:101FA0003229F7D32C49FF2008702C49AA20087049
:101FB000274800F035F9264800F086FA617A2A4869
:101FC00000F00BFB244964220A31274800F0FBFA99
:101FD00021493222D231244800F0FAFA5022234912
:101FE000214800F0DCFA1D492822491D1E4800F056
:101FF000DBFA1D481E49184AC0F848121D49C0F8AE
:102000004C12002012F10A0200F6B83122F810102A
:10201000401C80B26428F7D3144A0020B2F1640255
:1020200000F57A6122F81010401C80B23228F7D3F4
:102030000E490F20087009495520491D08700A48AB
:1020400000F0AEF9BDE81040074800F03DBA0000CE
:1020500094060020340B0020600C00208200002039
:10206000793B0008873B0008E4080020960D00201B
:10207000B13B0008BF3B000810B5044800F045FA2A
:10208000BDE81040024800F040BA0000940600206D
:10209000E4080020F0B5464D8BB02888401C28800D
:1020A000684601F0CFFB434C2888434E20803146E0
:1020B000049802F001F801F0CBFF404F60803946F0
:1020C000029801F0F9FF01F0C3FFA080BDF8000005
:1020D000E0809DF8180000B10120208100F074FF1D
:1020E000608100F071FF000CA08100F093FFE0819F
:1020F000334C288831462080049801F0DDFF01F040
:10210000A7FF60803946029801F0D6FF01F0A0FFDA
:10211000A08001F0CDFD054609AA08A907A801F095
:10212000CDFD234C0020A41C012120709DF8182017
:1021300002B12170049AB2F17E5F03DD227842F091
:10214000020222701F4B049A9A4203DD227842F069
:102150000402227060709DF81C2002B961709DF825
:1021600020201AB9627842F0020262709DF82420A1
:102170001AB9627842F004026270A070052D0AD28A
:10218000DFE805F0090305071300A17003E0022052
:1021900000E00320A07001F0E1FD002803D0A0784A
:1021A00040F08000A0700BB0F0BDFF20F2E700000F
:1021B00080000020FC0B002000007A440000C84290
:1021C000320D00203333B33FFEF758BE38B5114D02
:1021D000E86900281CD01048FFF7FFFA0E48006895
:1021E00001680091406800900C4800684068C0F5A4
:1021F000807084B22146E86900F0BDF924B1E86935
:1022000090F81F02032803D0BDE8384000F06EB8F4
:1022100038BD000054060020B4040020FC04002057
:1022200070B586B0050027D0154C1648134EC4E98A
:1022300000601548A0601548E060801520821448B1
:10224000606101202083142212496846E561FDF790
:10225000BBFF6946284600F0ACF9218A0022E068FD
:10226000FEF707FE3068016841680591C16841F0DA
:102270001001C16000F03AF806B070BDB40400204F
:1022800054060020FC040020400500200008014006
:10229000000C014058460008030009D05869002886
:1022A00006D019B10022198BFEF7E3BD0122FAE72F
:1022B0007047002804D00068002801D0FFF7B2BCA6
:1022C000704738B50C4600280FD00CB1012200E051
:1022D0000022018AC068FEF7CCFD002C05D000204A
:1022E0000090401C00906428FBD338BD0548C169AC
:1022F000002905D04FF4807203481C31FFF782BCDF
:102300007047000054060020B404002070B50D4D45
:10231000E869002815D0FEF7B1FD04460A4E04E036
:10232000FEF7ACFD001B022804D830680068C043EB
:102330004006F5D4E86900F054F9BDE87040FFF7B5
:10234000D5BF70BD54060020B404002038B5114D2F
:10235000E86900281CD01048FFF73FFA0E480068D3
:1023600001680091406800900C4800684068C0F522
:10237000807084B22146E86900F0FDF824B1E86974
:1023800090F81F02032803D0BDE8384000F06CB875
:1023900038BD00007406002084050020CC05002014
:1023A00070B586B0050026D0154C1648134EC4E90A
:1023B00000601548A0601548E060102020820020D1
:1023C00060612083142212496846E561FDF7FCFE36
:1023D0006946284600F0EDF8218A0022E068FEF701
:1023E00048FD3068016841680591C16841F01001FD
:1023F000C16000F039F806B070BD0000840500200F
:1024000074060020CC0500201006002000080140C2
:102410006C460008030009D05869002806D019B19D
:102420000022198BFEF725BD0122FAE7704700282C
:1024300004D00068002801D0FFF7F4BB704738B51E
:102440000C4600280FD00CB1012200E00022018AC6
:10245000C068FEF70EFD002C05D000200090401C47
:1024600000906428FBD338BD0548C169002905D018
:102470004FF4807203481C31FFF7C4BB7047000063
:10248000740600208405002070B50D4DE869002811
:1024900015D0FEF7F3FC04460A4E04E0FEF7EEFC0E
:1024A000001B022804D830680068C0434006F5D4F9
:1024B000E86900F096F8BDE87040FFF7D5BF70BD41
:1024C000740600208405002070B504001CD04FF471
:1024D0008075294604F11C00FDF7A8FE294604F585
:1024E0008E70FDF7A3FE0020A4F81C0284F81E02E3
:1024F00084F81F02C4F82002C4F82402C4F8280299
:10250000C4F82C02C4F8300270BD70B5040031D09C
:1025100094F81E020025C8B184F81E52204601F02E
:10252000C0F894F81F02032810D04FF4807104F112
:102530001C00FDF77BFEA4F81C5284F81F52D4F84F
:102540003C221AB10021D4F84402904794F81F02AB
:1025500001280FD1D4F8400200280BD08047D4F8CE
:102560002012401A052805D9A4F81C5284F81E52DE
:1025700084F81F5270BD10B504000FD0A4F81C12CF
:1025800000290BD0012084F81E02D4F8400210B1BB
:102590008047C4F82002022084F81F0210BD0028E2
:1025A00001D0C16002837047002801D001614283DD
:1025B0007047002806D0002904D0142200F50D70C1
:1025C000FDF702BE7047002801D04160828270474B
:1025D000002801D08160C2827047002800D00170BD
:1025E000704710B504001DD0D4F838221AB100216C
:1025F000D4F8440290474FF4807104F11C00FDF7B9
:1026000015FE0020A4F81C0284F81E0284F81F02A4
:10261000D4F83C22002A05D0D4F84402BDE810408A
:102620000021104710BDFEE770477047FEF72CBC35
:1026300030B591B028216846FDF7F8FD14210AA8AD
:10264000FDF7F4FD1E48816941F001018161816956
:1026500001F001010F91C16941F08051C161C06970
:1026600000F080500F901748416821F0E06141F080
:10267000007141600320009001214FF4803000245C
:102680000491CDE901040225CDE907504FF4E01093
:1026900009906846FEF7BEFD00B1FEE70F20CDE9C8
:1026A0000A054FF48060CDE90C4002210AA80E947F
:1026B000FEF7D4FC002800D0FEE711B030BD0000CA
:1026C000001002400000014070470000F0B50268B1
:1026D000194B1A4C1A4D4FF08047984205D0B8421A
:1026E00003D0A04201D0A84203D122F070064A686C
:1026F0003243984205D0B84203D0A04201D0A8424C
:1027000003D122F44074CA6822434C6922F080024B
:10271000224302608A68C2620A688262984201D1DA
:1027200009690163012141610169C90703D0016998
:1027300021F001010161F0BD002C014000040040C6
:102740000008004010B501F00F030421046A99400D
:102750008C430462016A9A401143016210BD00007B
:1027600030B5036A026A22F001020262426884699B
:1027700024F073050C682C4323F002058B682B436F
:102780000A4DA8420BD123F00805CB6822F4407211
:102790002B434D6923F0040315438A692A434260A1
:1027A000846149684163036230BD0000002C014030
:1027B00030B5026A036A23F0100303624368846938
:1027C0000D6824F4E64444EA05248D6822F02002D2
:1027D00042EA05120B4DA8420ED1CD6822F08002CC
:1027E00042EA05124D6923F4406343EA85038D698B
:1027F00022F0400243EA85034360846149688163B3
:10280000026230BD002C014030B5036A026A22F436
:10281000807202624268C46923F4007324F0730575
:102820000C682C438D6843EA05230C4DA8420ED159
:10283000CD6823F4006343EA05234D6922F4405236
:1028400042EA05128D6923F4806342EA0512426070
:10285000C4614968C163036230BD0000002C0140BF
:1028600030B5046A026A22F4805202624268C36987
:102870000D6823F4E64343EA05238D6824F40054ED
:1028800044EA0534064DA84204D14D6922F4804241
:1028900042EA85124260C36149680164046230BD46
:1028A000002C014010B5406A0021C185C184FEF7AB
:1028B000CCFF10BD70B5446A2068406994F841109F
:1028C000C0F3C0100025212904D118B1E5842046A9
:1028D00000F0B4F82068406994F84210C0F380100A
:1028E000222904D118B1E585204600F080F8606CFB
:1028F00040F0100060642046FEF7A7FF70BD10B5E1
:102900000146406A096809684FF0000289062ED422
:10291000C28501680C3151E8003F23F4807341E81F
:102920000034002CF5D10168143151E8003F23F048
:10293000010341E80034002CF5D10168143151E85D
:10294000003F23F0400341E80034002CF5D1202162
:1029500080F84210016B012909D101680C3151E85E
:10296000003F23F0100341E80034002CF5D142630E
:10297000016B012902D0FFF753F910BD818DFEF7DD
:102980002BFF10BD10B5406A01214163016B012985
:1029900002D0FFF746F910BD818D4908FEF71CFFF4
:1029A00010BD10B50146406A09680968890616D449
:1029B0000021C1840168143151E8002F22F0800207
:1029C00041E80023002BF5D101680C3151E8002FBC
:1029D00042F0400241E80023002BF5D110BDFFF783
:1029E0005DF910BD10B5406AFFF768F910BD0168C8
:1029F0000C3151E8002F22F4907241E80023002BA3
:102A0000F5D10168143151E8002F22F0010241E8AC
:102A10000023002BF5D1016B012909D101680C318C
:102A200051E8002F22F0100241E80023002BF5D1DD
:102A3000202180F8421000210163704701680C31A9
:102A400051E8002F22F0C00241E80023002BF5D10D
:102A5000202180F84110704708B590F842102229D3
:102A600001D0022008BD82684FF480539A4201D100
:102A7000016921B1816A9A421BD04AB10AE0026819
:102A8000816A5268C2F308020A80816A891C08E0E0
:102A9000026972B10268526802F07F020A70816AAC
:102AA000491C8162C18D491E0904090CC18503D0EE
:102AB0001BE002685268F1E70168CA6822F0200250
:102AC000CA600168CA6822F48072CA6001684A69F3
:102AD00022F001024A61202180F842100021416366
:102AE000026B012A03D0FFF79BF8002008BD0163A9
:102AF00001680C3151E8002F22F0100241E8002358
:102B0000002BF5D101680A68D20602D50A68496827
:102B10000091818DFEF760FEE7E7000070B5044686
:102B200000680169E26821F44051114301612169A3
:102B3000A0680843616908432168CA6841F20C63D0
:102B40009A430243CA6020684169A26921F4407136
:102B5000114341611E492068884202D1FEF724FBDF
:102B600001E0FEF711FB00EBC00101EB0012606811
:102B700064218000B2FBF0F3B3FBF1F36FF01806B1
:102B80007343B2FBF0F5B2FBF0F605EB830532239D
:102B900003EB0515B5FBF1F5B6FBF1F605F0F00515
:102BA00005EB0615B2FBF0F6B2FBF0F0B0FBF1F06E
:102BB0006FF01802504306EB800003EB0010B0FBEF
:102BC000F1F0216800F00F002844886070BD00001B
:102BD0000038014038B581620446828500201346E2
:102BE0006064222284F84220E56B1B4AAA62E56BEE
:102BF0001A4AEA62E56B1A4A2A63E26B50630A4694
:102C00002168E06B091DFDF7EDFF20680168406851
:102C10000090206948B120680C3050E8001F41F452
:102C2000807140E80012002AF5D12068143050E885
:102C3000001F41F0010140E80012002AF5D1206890
:102C4000143050E8001F41F0400140E80012002A13
:102C5000F5D1002038BD0000FF28000885290008B4
:102C6000B5280008084882B000680168C943C90651
:102C700005D401684068009002B0FFF7A7BA024887
:102C800002B0FEF7E9BD0000B4040020084882B09D
:102C900000680168C943C90605D40168406800900E
:102CA00002B0FFF753BB024802B0FEF7D5BD0000EB
:102CB00084050020FEE70907090E002804DB00F167
:102CC000E02080F80014704700F00F0000F1E020D1
:102CD00080F8141D70470000094810B500210180DC
:102CE00041800171FEF7CAF80549091F086000F02C
:102CF0000BF8BDE8104004210248FEF7A5BC000017
:102D00002C0000208C00002030B5304895B081693F
:102D100041F400618161816901F40061139181696D
:102D200041F008018161816901F008011391816915
:102D300041F0010181618069002400F001001390DD
:102D40004FF480400F900220CDE910040320129030
:102D50000FA91F48FDF790FF1E486422B0FBF2F553
:102D60001E481D4A46F62901C0E90024C0E9024177
:102D700080210461C0E90541FEF700FD002823D150
:102D80001C2108A8FDF752FA60200890CDE90954EB
:102D90000B940C940D94042208A910480E94FEF78D
:102DA00087FC002810D120216846FDF73FFA0094E7
:102DB0004FF40050CDE90440029401940394694615
:102DC00006480794FEF7CAFB15B030BD001002405C
:102DD000000C014002581400002C01408C0000201F
:102DE000034800210171418004210248FEF72CBCF8
:102DF0002C0000208C00002010B50B4C20790028FE
:102E000010D0FEF73BF8211F0A880860821A6088FC
:102E1000104480B260802188884203D3BDE810400E
:102E2000FFF7DEBF10BD00002C00002010B580B100
:102E30000A4908800020488001200871FEF71EF82A
:102E40000649091F0860BDE8104004210448FEF748
:102E5000AFBBBDE81040FFF7C3BF00002C0000204F
:102E60008C00002070B52C240A4D4FF0FF31002358
:102E7000C25C51400022CE0702D085EA510100E039
:102E80004908521CD2B2082AF5D35B1CA342EFD3E7
:102E9000C84370BD2083B8ED00487047840100200E
:102EA00010B5034800F00CFE02490020087010BD68
:102EB00084010020640000202DE9F04104464FF019
:102EC000814112488C4201DA0C4602E0844200DD66
:102ED00004460F4DD5E90260314601F0B9F90746C5
:102EE0003146204601F0B4F9394600F0EFFF0446C0
:102EF000D5E90060314601F0ABF9214601F0DCF87C
:102F00003146BDE8F04100F079BF00000000A0416B
:102F10001001002010B540EA010353EA020404D076
:102F200032EA030303D0022010BD032010BD21EAC2
:102F30000003134201D0012010BD00EA0103134237
:102F400001D0002010BD30EA010102D0622308A2A6
:102F500003E0904304D064230AA20121312003E05E
:102F600066230EA20121322000F05AF8042010BD81
:102F70004C6F772044727920427574204D6964202B
:102F8000576574004C6F7720447279204275742025
:102F900048696768205765740000000057617465D0
:102FA0007220446973636F6E74696E756F75730018
:102FB00000F03F00034A00EB400002EB80000021DC
:102FC00041727047B401002010B50020084B014643
:102FD0005FF0010401EB410203EB8202527A12B16D
:102FE00004FA01F21043491CC9B22029F2D310BDE2
:102FF000B401002010B54FF440710448FDF716F9F4
:103000000348002141800180084610BDB401002022
:1030100066000020014840887047000066000020DC
:1030200070B5054600F03F00084C00EB400654F830
:103030002600401C44F82600FDF720FF014604EB63
:103040008600416005720121417270BDB40100200B
:1030500030B589B00024234800940194029481691A
:1030600041F400718161816901F400710791816906
:1030700041F0080181618069012500F00800CDE977
:10308000064005940320CDE9035003A91648FDF737
:10309000F3FD1748154984600160047304750561E8
:1030A0004FF460214460C161FDF7ACFA10B13023E8
:1030B00010A20BE00820CDE9000507200290694628
:1030C0000B48FDF71DFA40B13A230EA20321202040
:1030D000FFF7A6FF012009B030BD0548FDF7A4F9B0
:1030E0000020F8E700100240000C014000240140DD
:1030F000E00000204144433120496E69742046615C
:10310000696C00004144432043683820436F6E6679
:103110006967204661696C00052801D2012070476B
:1031200000207047042801D201207047002070471A
:1031300010B5029CC0E9021200210161C0E9004300
:103140000121017510BD2DE9F0410446007D88463E
:1031500030B3D4E90101256800F050FE0746E1686C
:1031600000F04CFE0146384600F0B0FE06462061F5
:103170002946404601F06CF8314600F09DFF294693
:1031800000F03CFE0546206031464FF07E5001F0D5
:103190005FF8394600F090FF60602846BDE8F08196
:1031A0000846FBE7F0B5134885B0816941F0080196
:1031B00081618069002600F00800049000960120DB
:1031C000CDE9010602200C4F3446039007EBC405FD
:1031D0006946A888009057F83400FDF74DFD284651
:1031E000002100F0C0FC641CAE71042CEEDB05B0C5
:1031F0000020F0BD001002403400002070B50D46E4
:103200000446FFF78FFF60B1074800EBC404A079C4
:10321000A84204D02946204600F0A5FCA571002054
:1032200070BD012070BD00003400002008B5FDF71E
:1032300033FEFFF7FDF9FEF743FD5948416941F0C0
:10324000010141614069002200F00100009001216C
:103250000E20FDF77FFE0E20FDF76EFE01221146C7
:103260000F20FDF777FE0F20FDF766FE02220121F9
:103270001120FDF76FFE1120FDF75EFE03220121F4
:103280001020FDF767FE1020FDF756FEFEF760FDEB
:10329000FEF7D4FD43480068C16841F01001C160E9
:1032A0004048D0300068C16841F01001C1603E4D17
:1032B00000224FF400412846FDF7DBFDFFF7F0FD4B
:1032C000FFF7EAFD0446FFF795FE0022202128467D
:1032D000FDF7CFFDFFF700FDFFF764FF002240215F
:1032E0002846FDF7C6FD00F0B5FCD4E9050100F065
:1032F000AFFA00F0F3FCFEF719FE0121002000F008
:10330000CBFB4FF496742046FDF7A4FC0021084641
:1033100000F0C2FB2046FDF79DFC01210020FFF7D5
:103320006DFF2046FDF796FC00210846FFF766FF7B
:103330002046FDF78FFC6000FFF778FD4FF42F70FB
:10334000FDF788FC0122960331462846FDF791FDE2
:103350002046FDF77FFC002231462846FDF789FD17
:103360002046FDF777FC4FF47A75104CFEF784FE8B
:10337000FFF742FD00F0ACFA00F0FEFCFDF77EFD29
:103380002168401AA84204D9FDF778FD2060FEF7B5
:1033900081FE00F047FC0120FDF75CFCE6E7000041
:1033A00000100240B4040020000C01406C0000201A
:1033B00070B50C46054600F005F82855000A291995
:1033C000487070BD30B503464FF6FF700022074CC1
:1033D00008E09D5C4540EDB2521C34F8155092B2A5
:1033E00085EA10208A42F4D330BD0000564400081C
:1033F000CA0801F00701805CC84000F00100704776
:103400002DE9F0470446488890FA90F8888845BA34
:10341000E06850B1208B404507D908EB0501814297
:1034200003D815B1B5F5FA6F07D90222012120465C
:1034300000F0D1F90020BDE8F087207884F81C0165
:103440000121E81DC0F3C70784F81D11002084F88E
:103450001E71024604E02318401C83F81F2180B22D
:10346000B842F8D30026894615E000BF08EB0600F5
:1034700081B2E068FFF7BCFF58B1C6F3C700204433
:1034800006F0070290F81F1109FA02F3194380F8B9
:103490001F11761CB6B2AE42E8D3F91C04F58E704B
:1034A000FFF786FF781DC6E72DE9F0414A88898835
:1034B00055BA4BBA416841B1818AA94205D9EA1887
:1034C0008A4202D80BB17D2B06D90222032100F0DB
:1034D00082F90020BDE8F081017880F81C110321F9
:1034E00080F81D1159060C0E80F81E4100220CE0D8
:1034F0004168AE1831F8161000EB42060F0A86F844
:103500001F71521C86F8201192B29A42F0D3E11C2E
:1035100000F58E70FFF74CFF601DDBE72DE9F041F1
:103520004A88898855BA4BBA816841B1C18AA94293
:1035300005D9EA188A4202D80BB17D2B06D902229E
:10354000042100F048F90020BDE8F081017880F8FE
:103550001C11042180F81D1159060C0E80F81E4123
:1035600000220CE08168AE1831F8161000EB42061C
:103570000F0A86F81F71521C86F8201192B29A42E7
:10358000F0D3E11C00F58E70FFF712FF601DDBE742
:103590002DE9F041044648880D4690FA90F8888855
:1035A000897947BA606860B1A08A404509D908EBBB
:1035B0000702824205D827B17B2F02D8B1EB470F13
:1035C00007D002221021204600F005F90020BDE8B6
:1035D000F081002611E000BF05EB46006268B0F8FC
:1035E000070041BA08EB060022F81010D4F84C226C
:1035F0000AB180B29047761CB6B2BE42ECD32078B6
:1036000084F81C01102084F81D01A87884F81E019C
:10361000E87884F81F01287984F82001687984F813
:103620002101062104F58E70FFF7C2FE0820CEE7C7
:103630002DE9F041044648880F4646BA888845BAC5
:10364000E06810B1218BB14201D8022205E04FF4AD
:103650007F485DB1454507D003220521204600F093
:10366000BAF80020BDE8F081012200E000223146D6
:1036700000F0DAF8D4F8482232B1454501D10121F1
:1036800000E00021304690473868C4F81C01B88833
:10369000A4F82001062104F58E70FFF789FE0820AA
:1036A000E0E72DE9F0410446B0F81C02042806D2F8
:1036B000D4F82C02401CC4F82C02BDE8F08104F1BF
:1036C0001C06B4F81C523746042D21D3A81E81B223
:1036D0003046FFF777FE711931F8021C884217D186
:1036E000207F2178884201D00028E6D1D4F8240236
:1036F00004F58E76401CC4F82402617F052924D08D
:103700000CDC012910D0032913D004290AD117E0B9
:10371000D4F83002401CC4F83002CEE7062919D094
:10372000102953D0012220E039462046FFF768FED9
:1037300003E039462046FFF7B7FE05002BD1BCE772
:1037400039462046FFF7EAFEF7E739462046FFF7FD
:103750006FFFF2E7E08B218C626840BA49BA12B180
:10376000A38A834206D8022206212046BDE8F04102
:1037700000F031B822F81010D4F84C2202B1904772
:10378000E169C4F81C11218CA4F8201106213046EF
:10379000FFF70EFE0825207F00288ED0D4F83822AF
:1037A0001AB10121D4F844029047D4F8343223B13D
:1037B0002A463146D4F844029847D4F82802401CDF
:1037C000C4F82802032084F81F0276E73946204611
:1037D000FFF7DEFEB1E770B50446007884F81C01FF
:1037E00041F0800084F81D0104F58E7084F81E21DC
:1037F00003210546FFF7DCFDD4F838221AB1012178
:10380000D4F844029047D4F8343223B10522294633
:10381000D4F844029847D4F82802401CC4F828027F
:10382000032084F81F0270BD30B5CC08012301F0DD
:103830000705AB40C908415C0AB1194300E0994350
:10384000015530BD1C220149FCF7BEBC20010020FF
:1038500038B5164A044610604FF08140C2E90110A5
:103860001348D06010320021118051609160D16006
:10387000116151611176FFF7EBFB38B18E230DA278
:1038800003212020FFF7CCFB012038BD07484FF073
:103890007E534FF07C520C492C300094FFF748FCCB
:1038A000FDF7ECFA09490860002038BD100100203E
:1038B0000000A041507265737375726520414443E6
:1038C00020496E69740000000AD7A33B5400002011
:1038D00010B5FDF7D3FA05490A68821A642A04D3A1
:1038E0000860BDE8104000F003B810BD540000208F
:1038F00070B5002425462F48FCF7B2FF0A212D4859
:10390000FCF710FF38B1B7232BA202212120FFF7CB
:1039100087FB012070BD2748FCF770FE0444254852
:10392000FCF7FEFF6D1C0A2DE5DB0A25B4FBF5F064
:10393000204C80B24034208000F0AAFB6FF00B01D5
:1039400000F02DFD214900F0B7FB2149606000F037
:10395000BDFA204900F0B0FB1F49A0600144B1F15D
:10396000A27F01D8012100E00021217661B1FFF79B
:10397000A3FA0146E0600F485C30FFF7E4FB2061EA
:103980002220FFF715FB10E00020E060134841689B
:10399000491C4160B1FBF5F005FB101028B9DE238E
:1039A0000FA201212220FFF73BFB6069401C6061F0
:1039B000002070BDE000002041444320436F6E763C
:1039C0002054696D656F75740000000033335340F7
:1039D00000000C4300007A440000A0BF5400002007
:1039E00043757272656E74204F75742052616E67F4
:1039F0006500000010B501460348FDF72DFA0128C7
:103A000000D0002010BD000000080140F0B51F48A4
:103A100085B0816941F004018161816901F004018F
:103A20000491816941F008018161816901F0080117
:103A30000491816941F001018161806900F0010018
:103A400004901348416821F0E06141F00071416049
:103A5000002601200096CDE9010603200D4F3446D3
:103A6000CDF80C0007EBC4056946A888009057F80C
:103A70003400FDF701F92846002100F06BF8641CC2
:103A8000AE71052CEEDB05B00020F0BD0010024049
:103A9000000001400000002070B50D460446FFF70D
:103AA0003BFB48B10548294600EBC404204600F022
:103AB00051F8A571002070BD012070BD00000020EC
:103AC00010B50446154820604FF48070A080302067
:103AD000E08001202072022161724FF4E131E16047
:103AE00021610F4A0021C4E905126422A283C82281
:103AF000E2833223238440F68C236384A2844FF430
:103B0000FA72E28484F8280084F8290084F82A10E4
:103B10002046FFF7A7F9E06210BD0000554C544C59
:103B2000CDCCCC3F70B50D460446052811D20DB161
:103B3000012100E00021E0B2FFF7AEFF042C08D223
:103B40000DB1012100E00021E0B2BDE87040FFF7B7
:103B500055BB70BD012904D0002281880068FDF7A3
:103B600088B90122F9E7012901D0012200E00022F1
:103B700081880068FDF77DB9052803D201B10121D4
:103B8000FFF7D0BF704770B50E4600280FD1002454
:103B9000012505FA04F0304201D0012100E00021A6
:103BA0002046FFF7BFFF641CA4B2052CF1D370BD03
:103BB000052803D201B10121FFF7B4BF704770B5EA
:103BC0000E4600280FD10024012505FA04F03042EA
:103BD00001D0012100E000212046FFF7A3FF641C73
:103BE000A4B2052CF1D370BD70B5044640780D46E3
:103BF0000026A84213D02078A84205D02170FDF7F6
:103C00003DF96060268170BD2089401C2081FDF750
:103C100035F96168401AC828F5D3657070BD217008
:103C2000F0E7000070B5FDF729F9084C054660681B
:103C3000281AB0F5FA7F08D34FF480410448FDF705
:103C400010F965602068401C206070BDD400002021
:103C500000100140F0B5134885B0816941F01001B2
:103C600081618069002600F0100004900220CDE9F7
:103C700002600D4F4FF48044012569463846CDE976
:103C80000045FCF7F9FF002221463846FDF7F1F820
:103C9000064C2660FDF7F2F86060257205B0002042
:103CA000F0BD00000010024000100140D4000020D0
:103CB000014890F8240070475401002010B5064BCD
:103CC00008B15C78047009B1587B0870002A01D0F3
:103CD000587E107010BD00005401002070B51B48C4
:103CE00086B0816941F0040181618069002500F09E
:103CF00004000195CDE90350232001260090694678
:103D000002961348FCF7B8FF124C26706670FDF758
:103D1000B5F86060258126736673FDF7AFF8206102
:103D2000A58226766676FDF7A9F8E061258484F8F9
:103D3000245084F82550FDF7A1F8C4E90A05FDF7E1
:103D40009DF80549086006B0002070BD00100240D3
:103D500000080140540100205C00002010B5FDF770
:103D60008DF80449896A401AC82801D3012010BD82
:103D7000002010BD540100202DE9F041FDF77EF830
:103D80001C4E05463068281A322830D30120356091
:103D9000FFF730FE80460220FFF72CFE074620206A
:103DA000FFF728FE044641461348FFF71DFF12485F
:103DB00039460C30FFF718FF0F4821461830FFF73F
:103DC00013FF0D4C627E617B6078FFF7A3F801461C
:103DD00094F82400884207D084F8250084F8241041
:103DE000A562726802B19047E06A401CE062BDE8DB
:103DF000F08100005C0000205401002090EA010FD7
:103E000048BF81F0004100F12A82421A3CBF801A6B
:103E100089184FEAD0524FF07F4C1CEA410FA2EBB9
:103E2000D15318BF9CEA026F00F03B804FF0004C6A
:103E30004CEA00204CEA012121FA03FC10EB0C0CA7
:103E40001ED202F1FF325FEA1C2040EBC25038BFA5
:103E500070471CF07F0F4FEA400C18BFBCF17F4F3A
:103E600038BF7047C3F12003994008BF20F001001C
:103E7000BCF17F4F38BF7047A0F1C04000F0E3B9FC
:103E80004FEA3C00000A40EBC25028BF1CF0FF0F75
:103E90004FEA400CE6D018BFBCF17F4F38BF7047E7
:103EA000EAE79CEA026F05D010EA5C0F08BF00F059
:103EB0000040704710B500F080F900BF64FBBE3EC3
:103EC000014800F03ABA00BF0000C07F4FF47F0CF9
:103ED0001CEAD0121EBF1CEAD11392EA0C0F93EA1F
:103EE0000C0F00F0858090EA010F48BF42F4807209
:103EF00040F4000C41F400002CF07F4120F07F40A2
:103F000000B58142A2EB03020FF2081CACEB504E4D
:103F1000C0F100009EF800E04FEA4E0E00FB0EFCE0
:103F200038BF49004FEA2C1C02F5FA020CFB0EF3D5
:103F30004FEACE1E4FEA112C4FEAC1210EEB635E11
:103F400042EB22420EFB0CFC4FEA1C5300FB031118
:103F50004FEA112C4FEA01310EFB0CFC4FEADC4C0E
:103F600000FB0C11C14228BF09184CEB03335DF86C
:103F700004EB10EB410143EBC250B2F57C0F38BFAC
:103F8000704729D512F0F00F1CBF00F1C04000F0BF
:103F900000407047008182838485868788898B8C66
:103FA0008D8E8F919293959697999A9C9D9FA0A2A2
:103FB000A3A5A7A8AAACAEB0B2B3B5B7B9BCBEC0F2
:103FC000C2C5C7C9CCCED1D4D7D9DCDFE2E6E9EC93
:103FD000F0F3F7FAFE0000004FEA400C0CF1807C91
:103FE000BCF17E4F28BF7047B0F1C04000F02BB944
:103FF00090EA010F0CEAD11348BF42F48072624587
:1040000038BF634507D213F47F0F16D080EA010052
:1040100000F00040704710B500F0CFF8097EFC3E7C
:1040200000F005B880EA010000F00040704780EA27
:10403000010000F0004000F006B912F47F0F04BF49
:104040000248704780EA010000F0FDB80000C07F20
:10405000C10DD1F19E0206DB4FEA002343F000437D
:1040600023FA02F07047004207D54FEA4001B1F150
:10407000FE4F02D24FF00000704710B500F09DF8DF
:1040800049922480002070476FEA200070470000AA
:10409000B0FA80F310FA03F2C3F19D030AD0D905F8
:1040A00001EB1220530638BF704700F1010008BF32
:1040B00020F00100704700004FF47F0C1CEAD01282
:1040C0001EBF1CEAD11392EA0C0F93EA0C0F00F00A
:1040D000478090EA010F48BF42F480724FF0004CD5
:1040E0004CEA00204CEA012102EB0302A0FB011381
:1040F000A2F50002002918BF43F001035B0028BFAE
:104100004FEA330342EB22425FEA132C4CEBC250DE
:104110002EBFBCEB436FB2F57C0F70474FEA036CC8
:10412000BCF1004F08BF20F00100B2F57C0F38BF92
:1041300070470BD582F0FF0212F5803FC8BF704771
:1041400000F1C040D8BF00F00040704700F5000CFF
:104150005FEA4C0C48BF7047B0F1C04000F073B844
:1041600090EA010F0CEAD11348BF42F48072624515
:1041700038BF634504D280EA010000F00040704778
:1041800010B500F01AF800BF8900013E00F007B832
:1041900000F009B85FEA410C5FEA1C6C08D080EAC5
:1041A000010000F050B85FEA400C5FEA1C6CF6D1E9
:1041B0004FF00040A0F5800070470EF1020E2EF087
:1041C000030E5EF8044B244204D44FEA4102B2F1DC
:1041D0007F4F11D84FEA4003B3F17F4F0CD80ED177
:1041E0004FEAD07CB2F17F4F0CEB4C0C0CF1020C7F
:1041F00008BF4CEBD17C04E04FF0080C01E04FEA23
:10420000D17C0CEB4C0324FA03F404F00704B4F162
:10421000040C06D20EEB840CBDE810404CF0010CEF
:104220006047DFE80CF0070802024FF00040A0F5FD
:10423000800010BD0846420018BFD2F1807288BFCE
:1042400000F0004010BDFF2141EAD050C00570478A
:1042500090EA010F48BF81F000413FF5D6AD421A08
:1042600004D882F00042A0EB020011444FEAD05281
:104270004FF07F4C1CEA410FA2EBD15318BF9CEAD0
:10428000026F4AD04FF0004C4CEA00204CEA01216A
:1042900021FA03FCB0EB0C0C0FD412F0FE0F36D059
:1042A0005FEA4C001DD5001240EBC25038BF70478A
:1042B0001CF03F0F18BF70470BE0A2F101025FEA4C
:1042C0001C2040EBC25038BF70471CF07F0F18BF56
:1042D0007047C3F12003994014BF401E20F0010035
:1042E000704780084FEA122308BF7047B0FA80FC7D
:1042F000A2EB0C02CCF1280C60FA0CF093EA122F1E
:1043000004BF00EBC25070474FEAC3707047130AF6
:104310005FEADC1008BF7047F6E79CEA026F04D042
:1043200010EA5C0F08BF0020704710B5FFF745FF8B
:1043300040DFF63E81F0004070470CF00F03092B80
:1043400008BF082000F051800A2B0BD0082B18BFA3
:10435000704708BF1CF0400F0AD04FF000004FF02C
:10436000000170471CF0400F18BF4FF0004070472D
:104370001CF0100F08D020F0704300F07F4242EA9A
:10438000D3014FEA4370704700F0604021F07F4254
:1043900042EA000201F07F4040EA727070474FF03D
:1043A000FF0212EAD0521CBF92F0FF038B42C2BF41
:1043B000D14200EBC1507047002A0AD0002B0BD02D
:1043C000002900F00040A4BF40F0FE4040F400008F
:1043D000704700F00040704743024FF00B0C18BFCD
:1043E0004CF0806C7FF46CAD70471CF4801F11D0D2
:1043F0001CF4E02F03D06FEACC31490070474FF036
:104400004050EFF3008222F0704242EA000282F351
:10441000008870474FF00000704701020203040556
:10442000060708090A0B0C0D0E0F101001020203FB
:104430000405060708090A0B0C0D0E0F10100000EA
:104440000000000000000102030406070809000044
:104450000000010203040000C1C081C1400101C38A
:10446000C003800241C201C6C006800741C70005E3
:10447000C1C581C4400401CCC00C800D41CD000FEA
:10448000C1CF81CE400E000AC1CA81CB400B01C909
:10449000C009800841C801D8C018801941D9001B43
:1044A000C1DB81DA401A001EC1DE81DF401F01DD61
:1044B000C01D801C41DC0014C1D481D5401501D73A
:1044C000C017801641D601D2C012801341D300110B
:1044D000C1D181D0401001F0C030803141F10033B2
:1044E000C1F381F240320036C1F681F7403701F561
:1044F000C035803441F4003CC1FC81FD403D01FFEA
:10450000C03F803E41FE01FAC03A803B41FB00398A
:10451000C1F981F840380028C1E881E9402901EB60
:10452000C02B802A41EA01EEC02E802F41EF002DE2
:10453000C1ED81EC402C01E4C024802541E5002739
:10454000C1E781E640260022C1E281E3402301E188
:10455000C021802041E001A0C060806141A10063D2
:10456000C1A381A240620066C1A681A7406701A5E0
:10457000C065806441A4006CC1AC81AD406D01AFE9
:10458000C06F806E41AE01AAC06A806B41AB00690A
:10459000C1A981A840680078C1B881B9407901BB40
:1045A000C07B807A41BA01BEC07E807F41BF007D62
:1045B000C1BD81BC407C01B4C074807541B5007739
:1045C000C1B781B640760072C1B281B3407301B108
:1045D000C071807041B00050C190819140510193F1
:1045E000C053805241920196C05680574197005562
:1045F000C19581944054019CC05C805D419D005FE9
:10460000C19F819E405E005AC19A819B405B019987
:10461000C059805841980188C04880494189004B61
:10462000C18B818A404A004EC18E818F404F018DDF
:10463000C04D804C418C0044C18481854045018738
:10464000C047804641860182C04280434183004189
:10465000C181818040400000B3220008C3220008CD
:1046600099220008C9210008540600202F240008C0
:104670003F24000815240008C92100087406002002
:10468000A0460008000000208C000000280100085F
:104690002C4700088C00002074130000440100081F
:1046A000000C014010000000000C01400800000058
:1046B00000080140008000000008014000100000D8
:1046C0000008014000080000000000000000000099
:1046D00000000000000C014002000000000C01403E
:1046E00000800000000C014020000000000C014090
:1046F000400000000000000000000000000000007A
:1047000000000000000000000000000000000000A9
:1047100001000000100000000000000000127A00FC
:0C4720000000000000000000000000008D
:04000005080000ED02
:00000001FF
